:10000000DAEF01F0646174612069733D202563209B
:100010000A20000095948C9495928C92146A145046
:10002000070810E313AE03D095968C8602D0959600
:100030008C96D890133695948C84000095948C946B
:10004000142AEDD795968C96146A145007080CE381
:10005000D890153695948C84948882A801D0158008
:1000600095948C94142AF1D795928C8295948C84D3
:1000700015C001F01200138E95948C9495928C9279
:10008000156A1550070810E313AE03D095968C86B9
:1000900002D095968C96D890133695948C84000057
:1000A00095948C94152AEDD7156A1550070810E31E
:1000B00014AE03D095968C8602D095968C96D890E7
:1000C000143695948C84000095948C94152AEDD761
:1000D00095928C8295948C8414C001F01200530E7A
:1000E000106E640E116E126A030E136E93DF01C060
:1000F00004F0040E136E8EDF01C005F0060E136EC1
:10010000146AB9DF070E136E010E146EB4DF090E08
:10011000136E7F0E146EAFDF0A0E136E050E146E93
:10012000AADF0B0E136EF40E146EA5DF0C0E136E09
:10013000FD0E146EA0DF0D0E136EFD0E146E9BDF10
:100140000E0E136E146A97DF700E136E200E146E6F
:1001500092DF1D0E136E146A8EDF1C0E136E1D0EC1
:10016000146E89DF200E136E410E146E84DF210E93
:10017000136E600E146E7FDF220E136E270E146E48
:100180007ADF230E136E520E146E75DF240E136E7B
:10019000146A71DF250E136E060E146E6CDF2A0EC4
:1001A000136E1E0E146E67DF300E136E8C0E146EFF
:1001B00062DF320E136E14685EDF330E136E420E72
:1001C000146E59DF340E136E400E146E54DF350E6C
:1001D000136E200E146E4FDF360E136E2D0E146E3E
:1001E0004ADF370E136ED40E146E45DF380E136ED1
:1001F000146A41DF390E136E146A3DDF3F0E136E31
:10020000730E146E38DF400E136E6F0E146E33DFF4
:10021000410E136E6E0E146E2EDF420E136E670EBD
:10022000146E29DF430E136E146825DF440E136E1F
:10023000146821DF450E136E14681DDF460E136E21
:10024000146819DF790E136E146A15DF7A0E136EB7
:10025000146A11DF710E136E220E146E0CDF730E12
:10026000136E146A08DF740E136E146A04DF750EC1
:10027000136E10C014F0FFDE760E136E11C014F072
:10028000FADE770E136E12C014F0F5DEEFEF01F018
:10029000EA6A100EE96EEF500EE0140E016E006A6D
:1002A000002EFED7012EFBD7BF0E006E002EFED70C
:1002B00000D0EF2EF2D71200870E136E010E146ECF
:1002C000DADE050E106EE4DF8E0E136E020E146E73
:1002D000D2DE080E136E030E146ECDDE080E136E02
:1002E000146AC9DE070E136E050E146EC4DE050E09
:1002F000136E020E146EBFDE030E136E8BDE01C092
:1003000004F0040E136E86DE01C005F0F7EF01F075
:10031000136A1350070815E312AE03D095968C8626
:1003200002D095968C96D890123695948C849488A9
:1003300082A802D0128001D0129095948C94132A36
:10034000E8D712C001F0120092928992080E016E55
:1003500000D00000018E0ED0019E1432D8B08982E8
:10036000D8A08992018C06D0019C012EF6D700D02E
:1003700000008982020E006EE96AE92EFED7002E87
:10038000FBD7230EE96EE92EFED7000001BEE4D7AD
:1003900001BCEAD712000900F6CF12F0F7CF13F034
:1003A000F5CF14F0D1DF12C0F6FF13C0F7FF112E06
:1003B000F2D71200F86AD09E929289820F01386BB0
:1003C000396B3A6B3B6B3C6B776A786A796A010EE2
:1003D000956E000E936E100E946E000180D68E0EF8
:1003E000136E146A48DE640E106E52DF65D7958076
:1003F00083B0FDD7958083B065D00F6A0F50040895
:100400000CE3939A8A8AC80E106E42DF939A8A9AF6
:10041000C80E106E3DDF0F2AF1D7030E136EFADD02
:1004200001C004F0040E136EF5DD01C005F09594D3
:100430008C9495928C927F0E126E6ADF0F6A0F5029
:10044000080814E3036A0F50060F016E000E032222
:1004500001C010F003C011F0126A5ADF11C0EAFFA8
:1004600010C0E9FF01C0EFFF0F2AE9D795928C82F7
:10047000070E136E010E146EFEDD939A8A8A1E0E0D
:10048000106E06DF0F6A0F5008081CE3036A0F5056
:10049000060FE96E000E0320EA6EEFCF10F0040E97
:1004A000F66E000EF76E090E116E75DF10C014F0B7
:1004B0004BDF0F0EF66E000EF76E030E116E6BDF44
:0804C0000F2AE1D790D70300D9
:020000040030CA
:0E00000000F2181C003F81000FC00FE00F40FF
:00000001FF
;PIC18LF46K22
;CRC=B476  CREATED="18-Nis-21 01:12"
