:1000000036EF00F0066A066A0650070810E305AEF0
:1000100003D094988B8802D094988B98D89005360A
:1000200095948C84000095948C94062AEDD705C095
:1000300001F04FEF00F0066A95948C94066A065022
:10004000070810E305AE03D094988B8802D09498EB
:100050008B98D890053695948C84058095948C94D3
:10006000062AEDD705C001F051EF00F0F86AD09EE6
:10007000C150F00BC16E000E0F01386F3C6F396F2D
:100080003A6F3B6F0101886B776A786A796A959459
:100090008C9495928C927F0E056E0001B3D7056A01
:1000A000CAD701C004F095928C820101F0D70300F9
:020000040030CA
:0E00000000E2181C00BF81000FC00FE00F408F
:00000001FF
;PIC18LF46K22
;CRC=C5B8  CREATED="17-Oca-21 14:24"
